{
  "_format": "hh-sol-artifact-1",
  "contractName": "CarRentalPlatform",
  "sourceName": "contracts/CarRentalPlatform.sol",
  "abi": [
    {
      "inputs": [],
      "stateMutability": "nonpayable",
      "type": "constructor"
    },
    {
      "anonymous": false,
      "inputs": [
        {
          "indexed": true,
          "internalType": "address",
          "name": "walletAddress",
          "type": "address"
        },
        {
          "indexed": false,
          "internalType": "uint256",
          "name": "amount",
          "type": "uint256"
        }
      ],
      "name": "BalanceWithdrawn",
      "type": "event"
    },
    {
      "anonymous": false,
      "inputs": [
        {
          "indexed": true,
          "internalType": "uint256",
          "name": "id",
          "type": "uint256"
        },
        {
          "indexed": false,
          "internalType": "string",
          "name": "name",
          "type": "string"
        },
        {
          "indexed": false,
          "internalType": "string",
          "name": "imgUrl",
          "type": "string"
        },
        {
          "indexed": false,
          "internalType": "uint256",
          "name": "rentFee",
          "type": "uint256"
        },
        {
          "indexed": false,
          "internalType": "uint256",
          "name": "saleFee",
          "type": "uint256"
        }
      ],
      "name": "CarAdded",
      "type": "event"
    },
    {
      "anonymous": false,
      "inputs": [
        {
          "indexed": true,
          "internalType": "uint256",
          "name": "id",
          "type": "uint256"
        },
        {
          "indexed": false,
          "internalType": "string",
          "name": "name",
          "type": "string"
        },
        {
          "indexed": false,
          "internalType": "string",
          "name": "imgUrl",
          "type": "string"
        },
        {
          "indexed": false,
          "internalType": "uint256",
          "name": "rentFee",
          "type": "uint256"
        },
        {
          "indexed": false,
          "internalType": "uint256",
          "name": "saleFee",
          "type": "uint256"
        }
      ],
      "name": "CarMetadataEdited",
      "type": "event"
    },
    {
      "anonymous": false,
      "inputs": [
        {
          "indexed": true,
          "internalType": "uint256",
          "name": "id",
          "type": "uint256"
        },
        {
          "indexed": false,
          "internalType": "enum CarRentalPlatform.Status",
          "name": "status",
          "type": "uint8"
        }
      ],
      "name": "CarStatusEdited",
      "type": "event"
    },
    {
      "anonymous": false,
      "inputs": [
        {
          "indexed": true,
          "internalType": "address",
          "name": "walletAddress",
          "type": "address"
        },
        {
          "indexed": true,
          "internalType": "uint256",
          "name": "carId",
          "type": "uint256"
        }
      ],
      "name": "CheckIn",
      "type": "event"
    },
    {
      "anonymous": false,
      "inputs": [
        {
          "indexed": true,
          "internalType": "address",
          "name": "walletAddress",
          "type": "address"
        },
        {
          "indexed": true,
          "internalType": "uint256",
          "name": "carId",
          "type": "uint256"
        }
      ],
      "name": "CheckOut",
      "type": "event"
    },
    {
      "anonymous": false,
      "inputs": [
        {
          "indexed": true,
          "internalType": "address",
          "name": "walletAddress",
          "type": "address"
        },
        {
          "indexed": false,
          "internalType": "uint256",
          "name": "amount",
          "type": "uint256"
        }
      ],
      "name": "Deposit",
      "type": "event"
    },
    {
      "anonymous": false,
      "inputs": [
        {
          "indexed": true,
          "internalType": "address",
          "name": "walletAddress",
          "type": "address"
        },
        {
          "indexed": false,
          "internalType": "uint256",
          "name": "amount",
          "type": "uint256"
        }
      ],
      "name": "PaymentMade",
      "type": "event"
    },
    {
      "anonymous": false,
      "inputs": [
        {
          "indexed": true,
          "internalType": "address",
          "name": "walletAddress",
          "type": "address"
        },
        {
          "indexed": false,
          "internalType": "string",
          "name": "name",
          "type": "string"
        },
        {
          "indexed": false,
          "internalType": "string",
          "name": "surname",
          "type": "string"
        }
      ],
      "name": "UserAdded",
      "type": "event"
    },
    {
      "inputs": [
        {
          "internalType": "string",
          "name": "name",
          "type": "string"
        },
        {
          "internalType": "string",
          "name": "url",
          "type": "string"
        },
        {
          "internalType": "uint256",
          "name": "rent",
          "type": "uint256"
        },
        {
          "internalType": "uint256",
          "name": "sale",
          "type": "uint256"
        }
      ],
      "name": "addCar",
      "outputs": [],
      "stateMutability": "nonpayable",
      "type": "function"
    },
    {
      "inputs": [
        {
          "internalType": "string",
          "name": "name",
          "type": "string"
        },
        {
          "internalType": "string",
          "name": "surname",
          "type": "string"
        }
      ],
      "name": "addUser",
      "outputs": [],
      "stateMutability": "nonpayable",
      "type": "function"
    },
    {
      "inputs": [],
      "name": "checkIn",
      "outputs": [],
      "stateMutability": "nonpayable",
      "type": "function"
    },
    {
      "inputs": [
        {
          "internalType": "uint256",
          "name": "id",
          "type": "uint256"
        }
      ],
      "name": "checkOut",
      "outputs": [],
      "stateMutability": "nonpayable",
      "type": "function"
    },
    {
      "inputs": [],
      "name": "deposit",
      "outputs": [],
      "stateMutability": "payable",
      "type": "function"
    },
    {
      "inputs": [
        {
          "internalType": "uint256",
          "name": "id",
          "type": "uint256"
        },
        {
          "internalType": "string",
          "name": "name",
          "type": "string"
        },
        {
          "internalType": "string",
          "name": "imgUrl",
          "type": "string"
        },
        {
          "internalType": "uint256",
          "name": "rentFee",
          "type": "uint256"
        },
        {
          "internalType": "uint256",
          "name": "saleFee",
          "type": "uint256"
        }
      ],
      "name": "editCarMetadata",
      "outputs": [],
      "stateMutability": "nonpayable",
      "type": "function"
    },
    {
      "inputs": [
        {
          "internalType": "uint256",
          "name": "id",
          "type": "uint256"
        },
        {
          "internalType": "enum CarRentalPlatform.Status",
          "name": "status",
          "type": "uint8"
        }
      ],
      "name": "editCarStatus",
      "outputs": [],
      "stateMutability": "nonpayable",
      "type": "function"
    },
    {
      "inputs": [
        {
          "internalType": "uint256",
          "name": "id",
          "type": "uint256"
        }
      ],
      "name": "getCar",
      "outputs": [
        {
          "components": [
            {
              "internalType": "uint256",
              "name": "id",
              "type": "uint256"
            },
            {
              "internalType": "string",
              "name": "name",
              "type": "string"
            },
            {
              "internalType": "string",
              "name": "imgUrl",
              "type": "string"
            },
            {
              "internalType": "enum CarRentalPlatform.Status",
              "name": "status",
              "type": "uint8"
            },
            {
              "internalType": "uint256",
              "name": "rentFee",
              "type": "uint256"
            },
            {
              "internalType": "uint256",
              "name": "saleFee",
              "type": "uint256"
            }
          ],
          "internalType": "struct CarRentalPlatform.Car",
          "name": "",
          "type": "tuple"
        }
      ],
      "stateMutability": "view",
      "type": "function"
    },
    {
      "inputs": [
        {
          "internalType": "enum CarRentalPlatform.Status",
          "name": "_status",
          "type": "uint8"
        }
      ],
      "name": "getCarByStatus",
      "outputs": [
        {
          "components": [
            {
              "internalType": "uint256",
              "name": "id",
              "type": "uint256"
            },
            {
              "internalType": "string",
              "name": "name",
              "type": "string"
            },
            {
              "internalType": "string",
              "name": "imgUrl",
              "type": "string"
            },
            {
              "internalType": "enum CarRentalPlatform.Status",
              "name": "status",
              "type": "uint8"
            },
            {
              "internalType": "uint256",
              "name": "rentFee",
              "type": "uint256"
            },
            {
              "internalType": "uint256",
              "name": "saleFee",
              "type": "uint256"
            }
          ],
          "internalType": "struct CarRentalPlatform.Car[]",
          "name": "",
          "type": "tuple[]"
        }
      ],
      "stateMutability": "view",
      "type": "function"
    },
    {
      "inputs": [],
      "name": "getContractBalance",
      "outputs": [
        {
          "internalType": "uint256",
          "name": "",
          "type": "uint256"
        }
      ],
      "stateMutability": "view",
      "type": "function"
    },
    {
      "inputs": [],
      "name": "getCurrentCount",
      "outputs": [
        {
          "internalType": "uint256",
          "name": "",
          "type": "uint256"
        }
      ],
      "stateMutability": "view",
      "type": "function"
    },
    {
      "inputs": [],
      "name": "getOwner",
      "outputs": [
        {
          "internalType": "address",
          "name": "",
          "type": "address"
        }
      ],
      "stateMutability": "view",
      "type": "function"
    },
    {
      "inputs": [],
      "name": "getTotalPayments",
      "outputs": [
        {
          "internalType": "uint256",
          "name": "",
          "type": "uint256"
        }
      ],
      "stateMutability": "view",
      "type": "function"
    },
    {
      "inputs": [
        {
          "internalType": "address",
          "name": "walletAddress",
          "type": "address"
        }
      ],
      "name": "getUser",
      "outputs": [
        {
          "components": [
            {
              "internalType": "address",
              "name": "walletAddress",
              "type": "address"
            },
            {
              "internalType": "string",
              "name": "name",
              "type": "string"
            },
            {
              "internalType": "string",
              "name": "surname",
              "type": "string"
            },
            {
              "internalType": "uint256",
              "name": "balance",
              "type": "uint256"
            },
            {
              "internalType": "uint256",
              "name": "rentedCarId",
              "type": "uint256"
            },
            {
              "internalType": "uint256",
              "name": "debt",
              "type": "uint256"
            },
            {
              "internalType": "uint256",
              "name": "start",
              "type": "uint256"
            }
          ],
          "internalType": "struct CarRentalPlatform.User",
          "name": "",
          "type": "tuple"
        }
      ],
      "stateMutability": "view",
      "type": "function"
    },
    {
      "inputs": [],
      "name": "makePayment",
      "outputs": [],
      "stateMutability": "nonpayable",
      "type": "function"
    },
    {
      "inputs": [
        {
          "internalType": "address",
          "name": "_newOwner",
          "type": "address"
        }
      ],
      "name": "setOwner",
      "outputs": [],
      "stateMutability": "nonpayable",
      "type": "function"
    },
    {
      "inputs": [
        {
          "internalType": "uint256",
          "name": "amount",
          "type": "uint256"
        }
      ],
      "name": "withdrawBalance",
      "outputs": [],
      "stateMutability": "nonpayable",
      "type": "function"
    },
    {
      "inputs": [
        {
          "internalType": "uint256",
          "name": "amount",
          "type": "uint256"
        }
      ],
      "name": "withdrawOwnerBalance",
      "outputs": [],
      "stateMutability": "nonpayable",
      "type": "function"
    }
  ],
  "bytecode": "0x608060405234801561001057600080fd5b50600160008190555033600260006101000a81548173ffffffffffffffffffffffffffffffffffffffff021916908373ffffffffffffffffffffffffffffffffffffffff16021790555060006003819055506138dd806100716000396000f3fe6080604052600436106101095760003560e01c80636f9fb98a11610095578063d0e30db011610064578063d0e30db014610353578063d8546f491461035d578063d8d7970014610386578063da76d5cd1461039d578063dd51babf146103c657610109565b80636f9fb98a146102a9578063708f29a6146102d4578063893d20e8146102ff5780639a43da731461032a57610109565b80631bd2eeee116100dc5780631bd2eeee146101b45780633c69c657146101dd5780634865bed2146102065780635e8be1901461022f5780636f77926b1461026c57610109565b8063079eaf341461010e5780630a4115271461013757806313af403514610174578063183ff0851461019d575b600080fd5b34801561011a57600080fd5b50610135600480360381019061013091906126f3565b6103f1565b005b34801561014357600080fd5b5061015e60048036038101906101599190612799565b6106d2565b60405161016b9190612a41565b60405180910390f35b34801561018057600080fd5b5061019b60048036038101906101969190612ac1565b610a01565b005b3480156101a957600080fd5b506101b2610ad5565b005b3480156101c057600080fd5b506101db60048036038101906101d69190612b1a565b610d8f565b005b3480156101e957600080fd5b5061020460048036038101906101ff9190612b1a565b61107f565b005b34801561021257600080fd5b5061022d60048036038101906102289190612b47565b611284565b005b34801561023b57600080fd5b5061025660048036038101906102519190612b1a565b61152f565b6040516102639190612c7e565b60405180910390f35b34801561027857600080fd5b50610293600480360381019061028e9190612ac1565b611733565b6040516102a09190612d52565b60405180910390f35b3480156102b557600080fd5b506102be611976565b6040516102cb9190612d83565b60405180910390f35b3480156102e057600080fd5b506102e9611a0e565b6040516102f69190612d83565b60405180910390f35b34801561030b57600080fd5b50610314611aa8565b6040516103219190612dad565b60405180910390f35b34801561033657600080fd5b50610351600480360381019061034c9190612dc8565b611ad2565b005b61035b611c36565b005b34801561036957600080fd5b50610384600480360381019061037f9190612e08565b611d27565b005b34801561039257600080fd5b5061039b611ee4565b005b3480156103a957600080fd5b506103c460048036038101906103bf9190612b1a565b612143565b005b3480156103d257600080fd5b506103db612374565b6040516103e89190612d83565b60405180910390f35b6103fa33612385565b1561043a576040517f08c379a000000000000000000000000000000000000000000000000000000000815260040161043190612f21565b60405180910390fd5b6040518060e001604052803373ffffffffffffffffffffffffffffffffffffffff16815260200185858080601f016020809104026020016040519081016040528093929190818152602001838380828437600081840152601f19601f82011690508083019250505050505050815260200183838080601f016020809104026020016040519081016040528093929190818152602001838380828437600081840152601f19601f8201169050808301925050505050505081526020016000815260200160008152602001600081526020016000815250600460003373ffffffffffffffffffffffffffffffffffffffff1673ffffffffffffffffffffffffffffffffffffffff16815260200190815260200160002060008201518160000160006101000a81548173ffffffffffffffffffffffffffffffffffffffff021916908373ffffffffffffffffffffffffffffffffffffffff16021790555060208201518160010190805190602001906105b19291906124c0565b5060408201518160020190805190602001906105ce9291906124c0565b50606082015181600301556080820151816004015560a0820151816005015560c082015181600601559050503373ffffffffffffffffffffffffffffffffffffffff167f8eab1db142a914aff8b515eedb9177bd7effaef6d714c41e30bdf15206778607600460003373ffffffffffffffffffffffffffffffffffffffff1673ffffffffffffffffffffffffffffffffffffffff168152602001908152602001600020600101600460003373ffffffffffffffffffffffffffffffffffffffff1673ffffffffffffffffffffffffffffffffffffffff1681526020019081526020016000206002016040516106c4929190613037565b60405180910390a250505050565b60606000806106e16001612420565b90506000600190505b81811161076257846002811115610704576107036128a4565b5b6005600083815260200190815260200160002060030160009054906101000a900460ff16600281111561073a576107396128a4565b5b141561074f57828061074b9061309d565b9350505b808061075a9061309d565b9150506106ea565b5060008267ffffffffffffffff81111561077f5761077e6130e6565b5b6040519080825280602002602001820160405280156107b857816020015b6107a5612546565b81526020019060019003908161079d5790505b509050600080600190505b8381116109f4578660028111156107dd576107dc6128a4565b5b6005600083815260200190815260200160002060030160009054906101000a900460ff166002811115610813576108126128a4565b5b14156109e157600560008281526020019081526020016000206040518060c00160405290816000820154815260200160018201805461085190612f70565b80601f016020809104026020016040519081016040528092919081815260200182805461087d90612f70565b80156108ca5780601f1061089f576101008083540402835291602001916108ca565b820191906000526020600020905b8154815290600101906020018083116108ad57829003601f168201915b505050505081526020016002820180546108e390612f70565b80601f016020809104026020016040519081016040528092919081815260200182805461090f90612f70565b801561095c5780601f106109315761010080835404028352916020019161095c565b820191906000526020600020905b81548152906001019060200180831161093f57829003601f168201915b505050505081526020016003820160009054906101000a900460ff16600281111561098a576109896128a4565b5b600281111561099c5761099b6128a4565b5b8152602001600482015481526020016005820154815250508383815181106109c7576109c6613115565b5b602002602001018190525081806109dd9061309d565b9250505b80806109ec9061309d565b9150506107c3565b5081945050505050919050565b600260009054906101000a900473ffffffffffffffffffffffffffffffffffffffff1673ffffffffffffffffffffffffffffffffffffffff163373ffffffffffffffffffffffffffffffffffffffff1614610a91576040517f08c379a0000000000000000000000000000000000000000000000000000000008152600401610a88906131b6565b60405180910390fd5b80600260006101000a81548173ffffffffffffffffffffffffffffffffffffffff021916908373ffffffffffffffffffffffffffffffffffffffff16021790555050565b610ade33612385565b610b1d576040517f08c379a0000000000000000000000000000000000000000000000000000000008152600401610b1490613222565b60405180910390fd5b6000600460003373ffffffffffffffffffffffffffffffffffffffff1673ffffffffffffffffffffffffffffffffffffffff1681526020019081526020016000206004015490506000811415610ba8576040517f08c379a0000000000000000000000000000000000000000000000000000000008152600401610b9f9061328e565b60405180910390fd5b6000600460003373ffffffffffffffffffffffffffffffffffffffff1673ffffffffffffffffffffffffffffffffffffffff1681526020019081526020016000206006015442610bf891906132ae565b9050600060056000848152602001908152602001600020600401549050610c1f828261242e565b600460003373ffffffffffffffffffffffffffffffffffffffff1673ffffffffffffffffffffffffffffffffffffffff1681526020019081526020016000206005016000828254610c7091906132e2565b925050819055506000600460003373ffffffffffffffffffffffffffffffffffffffff1673ffffffffffffffffffffffffffffffffffffffff168152602001908152602001600020600401819055506000600460003373ffffffffffffffffffffffffffffffffffffffff1673ffffffffffffffffffffffffffffffffffffffff1681526020019081526020016000206006018190555060016005600085815260200190815260200160002060030160006101000a81548160ff02191690836002811115610d4157610d406128a4565b5b0217905550823373ffffffffffffffffffffffffffffffffffffffff167fa864a8b988e604bb05d6ce75d53efabb5620c45b15380b7bd0c51dcfa71dda0360405160405180910390a3505050565b610d9833612385565b610dd7576040517f08c379a0000000000000000000000000000000000000000000000000000000008152600401610dce90613222565b60405180910390fd5b60016002811115610deb57610dea6128a4565b5b6005600083815260200190815260200160002060030160009054906101000a900460ff166002811115610e2157610e206128a4565b5b14610e61576040517f08c379a0000000000000000000000000000000000000000000000000000000008152600401610e5890613384565b60405180910390fd5b6000600460003373ffffffffffffffffffffffffffffffffffffffff1673ffffffffffffffffffffffffffffffffffffffff1681526020019081526020016000206004015414610ee6576040517f08c379a0000000000000000000000000000000000000000000000000000000008152600401610edd906133f0565b60405180910390fd5b6000600460003373ffffffffffffffffffffffffffffffffffffffff1673ffffffffffffffffffffffffffffffffffffffff1681526020019081526020016000206005015414610f6b576040517f08c379a0000000000000000000000000000000000000000000000000000000008152600401610f629061345c565b60405180910390fd5b42600460003373ffffffffffffffffffffffffffffffffffffffff1673ffffffffffffffffffffffffffffffffffffffff1681526020019081526020016000206006018190555080600460003373ffffffffffffffffffffffffffffffffffffffff1673ffffffffffffffffffffffffffffffffffffffff1681526020019081526020016000206004018190555060026005600083815260200190815260200160002060030160006101000a81548160ff02191690836002811115611033576110326128a4565b5b0217905550803373ffffffffffffffffffffffffffffffffffffffff167ff65ce03794824579bcd95d8c6743ffc10c4a5e7405fb3876c1abf81453105c4260405160405180910390a350565b600260009054906101000a900473ffffffffffffffffffffffffffffffffffffffff1673ffffffffffffffffffffffffffffffffffffffff163373ffffffffffffffffffffffffffffffffffffffff161461110f576040517f08c379a0000000000000000000000000000000000000000000000000000000008152600401611106906131b6565b60405180910390fd5b806003541015611154576040517f08c379a000000000000000000000000000000000000000000000000000000000815260040161114b906134ee565b60405180910390fd5b6000600260009054906101000a900473ffffffffffffffffffffffffffffffffffffffff1673ffffffffffffffffffffffffffffffffffffffff168260405161119c9061353f565b60006040518083038185875af1925050503d80600081146111d9576040519150601f19603f3d011682016040523d82523d6000602084013e6111de565b606091505b5050905080611222576040517f08c379a0000000000000000000000000000000000000000000000000000000008152600401611219906135a0565b60405180910390fd5b816003600082825403925050819055503373ffffffffffffffffffffffffffffffffffffffff167fddc398b321237a8d40ac914388309c2f52a08c134e4dc4ce61e32f57cb7d80f1836040516112789190612d83565b60405180910390a25050565b600260009054906101000a900473ffffffffffffffffffffffffffffffffffffffff1673ffffffffffffffffffffffffffffffffffffffff163373ffffffffffffffffffffffffffffffffffffffff1614611314576040517f08c379a000000000000000000000000000000000000000000000000000000000815260040161130b906131b6565b60405180910390fd5b61131e6001612450565b600061132a6001612420565b90506040518060c0016040528082815260200188888080601f016020809104026020016040519081016040528093929190818152602001838380828437600081840152601f19601f82011690508083019250505050505050815260200186868080601f016020809104026020016040519081016040528093929190818152602001838380828437600081840152601f19601f820116905080830192505050505050508152602001600160028111156113e5576113e46128a4565b5b8152602001848152602001838152506005600083815260200190815260200160002060008201518160000155602082015181600101908051906020019061142d9291906124c0565b50604082015181600201908051906020019061144a9291906124c0565b5060608201518160030160006101000a81548160ff02191690836002811115611476576114756128a4565b5b02179055506080820151816004015560a08201518160050155905050807f1d26cfb076fd58c1fa5695bb34e5556995a0aa34ecc601438f9957d6a71439a360056000848152602001908152602001600020600101600560008581526020019081526020016000206002016005600086815260200190815260200160002060040154600560008781526020019081526020016000206005015460405161151e94939291906135c0565b60405180910390a250505050505050565b611537612546565b600060056000848152602001908152602001600020600001541415611591576040517f08c379a00000000000000000000000000000000000000000000000000000000081526004016115889061365f565b60405180910390fd5b600560008381526020019081526020016000206040518060c0016040529081600082015481526020016001820180546115c990612f70565b80601f01602080910402602001604051908101604052809291908181526020018280546115f590612f70565b80156116425780601f1061161757610100808354040283529160200191611642565b820191906000526020600020905b81548152906001019060200180831161162557829003601f168201915b5050505050815260200160028201805461165b90612f70565b80601f016020809104026020016040519081016040528092919081815260200182805461168790612f70565b80156116d45780601f106116a9576101008083540402835291602001916116d4565b820191906000526020600020905b8154815290600101906020018083116116b757829003601f168201915b505050505081526020016003820160009054906101000a900460ff166002811115611702576117016128a4565b5b6002811115611714576117136128a4565b5b8152602001600482015481526020016005820154815250509050919050565b61173b61258e565b61174482612385565b611783576040517f08c379a000000000000000000000000000000000000000000000000000000000815260040161177a90613222565b60405180910390fd5b600460008373ffffffffffffffffffffffffffffffffffffffff1673ffffffffffffffffffffffffffffffffffffffff1681526020019081526020016000206040518060e00160405290816000820160009054906101000a900473ffffffffffffffffffffffffffffffffffffffff1673ffffffffffffffffffffffffffffffffffffffff1673ffffffffffffffffffffffffffffffffffffffff16815260200160018201805461183390612f70565b80601f016020809104026020016040519081016040528092919081815260200182805461185f90612f70565b80156118ac5780601f10611881576101008083540402835291602001916118ac565b820191906000526020600020905b81548152906001019060200180831161188f57829003601f168201915b505050505081526020016002820180546118c590612f70565b80601f01602080910402602001604051908101604052809291908181526020018280546118f190612f70565b801561193e5780601f106119135761010080835404028352916020019161193e565b820191906000526020600020905b81548152906001019060200180831161192157829003601f168201915b505050505081526020016003820154815260200160048201548152602001600582015481526020016006820154815250509050919050565b6000600260009054906101000a900473ffffffffffffffffffffffffffffffffffffffff1673ffffffffffffffffffffffffffffffffffffffff163373ffffffffffffffffffffffffffffffffffffffff1614611a08576040517f08c379a00000000000000000000000000000000000000000000000000000000081526004016119ff906131b6565b60405180910390fd5b47905090565b6000600260009054906101000a900473ffffffffffffffffffffffffffffffffffffffff1673ffffffffffffffffffffffffffffffffffffffff163373ffffffffffffffffffffffffffffffffffffffff1614611aa0576040517f08c379a0000000000000000000000000000000000000000000000000000000008152600401611a97906131b6565b60405180910390fd5b600354905090565b6000600260009054906101000a900473ffffffffffffffffffffffffffffffffffffffff16905090565b600260009054906101000a900473ffffffffffffffffffffffffffffffffffffffff1673ffffffffffffffffffffffffffffffffffffffff163373ffffffffffffffffffffffffffffffffffffffff1614611b62576040517f08c379a0000000000000000000000000000000000000000000000000000000008152600401611b59906131b6565b60405180910390fd5b600060056000848152602001908152602001600020600001541415611bbc576040517f08c379a0000000000000000000000000000000000000000000000000000000008152600401611bb39061365f565b60405180910390fd5b806005600084815260200190815260200160002060030160006101000a81548160ff02191690836002811115611bf557611bf46128a4565b5b0217905550817fa2038badc9c4004a10f632052c54b0011bb307c2cadc65f22071f61ffd10663382604051611c2a919061368e565b60405180910390a25050565b611c3f33612385565b611c7e576040517f08c379a0000000000000000000000000000000000000000000000000000000008152600401611c7590613222565b60405180910390fd5b34600460003373ffffffffffffffffffffffffffffffffffffffff1673ffffffffffffffffffffffffffffffffffffffff1681526020019081526020016000206003016000828254611cd091906132e2565b925050819055503373ffffffffffffffffffffffffffffffffffffffff167fe1fffcc4923d04b559f4d29a8bfc6cda04eb5b0d3c460751c2402c5c5cc9109c34604051611d1d9190612d83565b60405180910390a2565b600260009054906101000a900473ffffffffffffffffffffffffffffffffffffffff1673ffffffffffffffffffffffffffffffffffffffff163373ffffffffffffffffffffffffffffffffffffffff1614611db7576040517f08c379a0000000000000000000000000000000000000000000000000000000008152600401611dae906131b6565b60405180910390fd5b600060056000898152602001908152602001600020600001541415611e11576040517f08c379a0000000000000000000000000000000000000000000000000000000008152600401611e089061365f565b60405180910390fd5b600060056000898152602001908152602001600020905060008787905014611e48578686826001019190611e469291906125e1565b505b60008585905014611e68578484826002019190611e669291906125e1565b505b6000831115611e7b578281600401819055505b6000821115611e8e578181600501819055505b877f10e3e3a462a9f4c167783d47719e646c87b1a773b083fb5eef04a076e887079c826001018360020184600401548560050154604051611ed294939291906135c0565b60405180910390a25050505050505050565b611eed33612385565b611f2c576040517f08c379a0000000000000000000000000000000000000000000000000000000008152600401611f2390613222565b60405180910390fd5b6000600460003373ffffffffffffffffffffffffffffffffffffffff1673ffffffffffffffffffffffffffffffffffffffff1681526020019081526020016000206005015490506000600460003373ffffffffffffffffffffffffffffffffffffffff1673ffffffffffffffffffffffffffffffffffffffff16815260200190815260200160002060030154905060008211611ffd576040517f08c379a0000000000000000000000000000000000000000000000000000000008152600401611ff4906136f5565b60405180910390fd5b81811015612040576040517f08c379a000000000000000000000000000000000000000000000000000000000815260040161203790613761565b60405180910390fd5b81600460003373ffffffffffffffffffffffffffffffffffffffff1673ffffffffffffffffffffffffffffffffffffffff1681526020019081526020016000206003016000828254039250508190555081600360008282546120a291906132e2565b925050819055506000600460003373ffffffffffffffffffffffffffffffffffffffff1673ffffffffffffffffffffffffffffffffffffffff168152602001908152602001600020600501819055503373ffffffffffffffffffffffffffffffffffffffff167f3a2d0e41c506b136330c6e5e0295ccbf0966daece99bfe7c89020cc01dbfb8d6836040516121379190612d83565b60405180910390a25050565b61214b612466565b61215433612385565b612193576040517f08c379a000000000000000000000000000000000000000000000000000000000815260040161218a90613222565b60405180910390fd5b6000600460003373ffffffffffffffffffffffffffffffffffffffff1673ffffffffffffffffffffffffffffffffffffffff1681526020019081526020016000206003015490508181101561221d576040517f08c379a000000000000000000000000000000000000000000000000000000000815260040161221490613761565b60405180910390fd5b81600460003373ffffffffffffffffffffffffffffffffffffffff1673ffffffffffffffffffffffffffffffffffffffff1681526020019081526020016000206003016000828254039250508190555060003373ffffffffffffffffffffffffffffffffffffffff16836040516122939061353f565b60006040518083038185875af1925050503d80600081146122d0576040519150601f19603f3d011682016040523d82523d6000602084013e6122d5565b606091505b5050905080612319576040517f08c379a0000000000000000000000000000000000000000000000000000000008152600401612310906135a0565b60405180910390fd5b3373ffffffffffffffffffffffffffffffffffffffff167fddc398b321237a8d40ac914388309c2f52a08c134e4dc4ce61e32f57cb7d80f18460405161235f9190612d83565b60405180910390a250506123716124b6565b50565b60006123806001612420565b905090565b60008073ffffffffffffffffffffffffffffffffffffffff16600460008473ffffffffffffffffffffffffffffffffffffffff1673ffffffffffffffffffffffffffffffffffffffff16815260200190815260200160002060000160009054906101000a900473ffffffffffffffffffffffffffffffffffffffff1673ffffffffffffffffffffffffffffffffffffffff1614159050919050565b600081600001549050919050565b600081603c8461243e91906137b0565b61244891906137e1565b905092915050565b6001816000016000828254019250508190555050565b600260005414156124ac576040517f08c379a00000000000000000000000000000000000000000000000000000000081526004016124a390613887565b60405180910390fd5b6002600081905550565b6001600081905550565b8280546124cc90612f70565b90600052602060002090601f0160209004810192826124ee5760008555612535565b82601f1061250757805160ff1916838001178555612535565b82800160010185558215612535579182015b82811115612534578251825591602001919060010190612519565b5b5090506125429190612667565b5090565b6040518060c001604052806000815260200160608152602001606081526020016000600281111561257a576125796128a4565b5b815260200160008152602001600081525090565b6040518060e00160405280600073ffffffffffffffffffffffffffffffffffffffff1681526020016060815260200160608152602001600081526020016000815260200160008152602001600081525090565b8280546125ed90612f70565b90600052602060002090601f01602090048101928261260f5760008555612656565b82601f1061262857803560ff1916838001178555612656565b82800160010185558215612656579182015b8281111561265557823582559160200191906001019061263a565b5b5090506126639190612667565b5090565b5b80821115612680576000816000905550600101612668565b5090565b600080fd5b600080fd5b600080fd5b600080fd5b600080fd5b60008083601f8401126126b3576126b261268e565b5b8235905067ffffffffffffffff8111156126d0576126cf612693565b5b6020830191508360018202830111156126ec576126eb612698565b5b9250929050565b6000806000806040858703121561270d5761270c612684565b5b600085013567ffffffffffffffff81111561272b5761272a612689565b5b6127378782880161269d565b9450945050602085013567ffffffffffffffff81111561275a57612759612689565b5b6127668782880161269d565b925092505092959194509250565b6003811061278157600080fd5b50565b60008135905061279381612774565b92915050565b6000602082840312156127af576127ae612684565b5b60006127bd84828501612784565b91505092915050565b600081519050919050565b600082825260208201905092915050565b6000819050602082019050919050565b6000819050919050565b612805816127f2565b82525050565b600081519050919050565b600082825260208201905092915050565b60005b8381101561284557808201518184015260208101905061282a565b83811115612854576000848401525b50505050565b6000601f19601f8301169050919050565b60006128768261280b565b6128808185612816565b9350612890818560208601612827565b6128998161285a565b840191505092915050565b7f4e487b7100000000000000000000000000000000000000000000000000000000600052602160045260246000fd5b600381106128e4576128e36128a4565b5b50565b60008190506128f5826128d3565b919050565b6000612905826128e7565b9050919050565b612915816128fa565b82525050565b600060c08301600083015161293360008601826127fc565b506020830151848203602086015261294b828261286b565b91505060408301518482036040860152612965828261286b565b915050606083015161297a606086018261290c565b50608083015161298d60808601826127fc565b5060a08301516129a060a08601826127fc565b508091505092915050565b60006129b7838361291b565b905092915050565b6000602082019050919050565b60006129d7826127c6565b6129e181856127d1565b9350836020820285016129f3856127e2565b8060005b85811015612a2f5784840389528151612a1085826129ab565b9450612a1b836129bf565b925060208a019950506001810190506129f7565b50829750879550505050505092915050565b60006020820190508181036000830152612a5b81846129cc565b905092915050565b600073ffffffffffffffffffffffffffffffffffffffff82169050919050565b6000612a8e82612a63565b9050919050565b612a9e81612a83565b8114612aa957600080fd5b50565b600081359050612abb81612a95565b92915050565b600060208284031215612ad757612ad6612684565b5b6000612ae584828501612aac565b91505092915050565b612af7816127f2565b8114612b0257600080fd5b50565b600081359050612b1481612aee565b92915050565b600060208284031215612b3057612b2f612684565b5b6000612b3e84828501612b05565b91505092915050565b60008060008060008060808789031215612b6457612b63612684565b5b600087013567ffffffffffffffff811115612b8257612b81612689565b5b612b8e89828a0161269d565b9650965050602087013567ffffffffffffffff811115612bb157612bb0612689565b5b612bbd89828a0161269d565b94509450506040612bd089828a01612b05565b9250506060612be189828a01612b05565b9150509295509295509295565b600060c083016000830151612c0660008601826127fc565b5060208301518482036020860152612c1e828261286b565b91505060408301518482036040860152612c38828261286b565b9150506060830151612c4d606086018261290c565b506080830151612c6060808601826127fc565b5060a0830151612c7360a08601826127fc565b508091505092915050565b60006020820190508181036000830152612c988184612bee565b905092915050565b612ca981612a83565b82525050565b600060e083016000830151612cc76000860182612ca0565b5060208301518482036020860152612cdf828261286b565b91505060408301518482036040860152612cf9828261286b565b9150506060830151612d0e60608601826127fc565b506080830151612d2160808601826127fc565b5060a0830151612d3460a08601826127fc565b5060c0830151612d4760c08601826127fc565b508091505092915050565b60006020820190508181036000830152612d6c8184612caf565b905092915050565b612d7d816127f2565b82525050565b6000602082019050612d986000830184612d74565b92915050565b612da781612a83565b82525050565b6000602082019050612dc26000830184612d9e565b92915050565b60008060408385031215612ddf57612dde612684565b5b6000612ded85828601612b05565b9250506020612dfe85828601612784565b9150509250929050565b600080600080600080600060a0888a031215612e2757612e26612684565b5b6000612e358a828b01612b05565b975050602088013567ffffffffffffffff811115612e5657612e55612689565b5b612e628a828b0161269d565b9650965050604088013567ffffffffffffffff811115612e8557612e84612689565b5b612e918a828b0161269d565b94509450506060612ea48a828b01612b05565b9250506080612eb58a828b01612b05565b91505092959891949750929550565b600082825260208201905092915050565b7f5573657220616c72656164792065786973747300000000000000000000000000600082015250565b6000612f0b601383612ec4565b9150612f1682612ed5565b602082019050919050565b60006020820190508181036000830152612f3a81612efe565b9050919050565b7f4e487b7100000000000000000000000000000000000000000000000000000000600052602260045260246000fd5b60006002820490506001821680612f8857607f821691505b60208210811415612f9c57612f9b612f41565b5b50919050565b60008190508160005260206000209050919050565b60008154612fc481612f70565b612fce8186612ec4565b94506001821660008114612fe95760018114612ffb5761302e565b60ff198316865260208601935061302e565b61300485612fa2565b60005b8381101561302657815481890152600182019150602081019050613007565b808801955050505b50505092915050565b600060408201905081810360008301526130518185612fb7565b905081810360208301526130658184612fb7565b90509392505050565b7f4e487b7100000000000000000000000000000000000000000000000000000000600052601160045260246000fd5b60006130a8826127f2565b91507fffffffffffffffffffffffffffffffffffffffffffffffffffffffffffffffff8214156130db576130da61306e565b5b600182019050919050565b7f4e487b7100000000000000000000000000000000000000000000000000000000600052604160045260246000fd5b7f4e487b7100000000000000000000000000000000000000000000000000000000600052603260045260246000fd5b7f4f6e6c79206f776e65722063616e2063616c6c20746869732066756e6374696f60008201527f6e00000000000000000000000000000000000000000000000000000000000000602082015250565b60006131a0602183612ec4565b91506131ab82613144565b604082019050919050565b600060208201905081810360008301526131cf81613193565b9050919050565b7f5573657220646f6573206e6f7420657869737400000000000000000000000000600082015250565b600061320c601383612ec4565b9150613217826131d6565b602082019050919050565b6000602082019050818103600083015261323b816131ff565b9050919050565b7f5573657220686173206e6f742072656e74656420612063617200000000000000600082015250565b6000613278601983612ec4565b915061328382613242565b602082019050919050565b600060208201905081810360008301526132a78161326b565b9050919050565b60006132b9826127f2565b91506132c4836127f2565b9250828210156132d7576132d661306e565b5b828203905092915050565b60006132ed826127f2565b91506132f8836127f2565b9250827fffffffffffffffffffffffffffffffffffffffffffffffffffffffffffffffff0382111561332d5761332c61306e565b5b828201905092915050565b7f436172206973206e6f7420617661696c61626c6520666f722075736500000000600082015250565b600061336e601c83612ec4565b915061337982613338565b602082019050919050565b6000602082019050818103600083015261339d81613361565b9050919050565b7f557365722068617320616c72656164792072656e746564206120636172000000600082015250565b60006133da601d83612ec4565b91506133e5826133a4565b602082019050919050565b60006020820190508181036000830152613409816133cd565b9050919050565b7f5573657220686173206465627420746f20706179000000000000000000000000600082015250565b6000613446601483612ec4565b915061345182613410565b602082019050919050565b6000602082019050818103600083015261347581613439565b9050919050565b7f496e73756666696369656e7420636f6e74726163742062616c616e636520746f60008201527f2077697468647261770000000000000000000000000000000000000000000000602082015250565b60006134d8602983612ec4565b91506134e38261347c565b604082019050919050565b60006020820190508181036000830152613507816134cb565b9050919050565b600081905092915050565b50565b600061352960008361350e565b915061353482613519565b600082019050919050565b600061354a8261351c565b9150819050919050565b7f5472616e73666572206661696c65640000000000000000000000000000000000600082015250565b600061358a600f83612ec4565b915061359582613554565b602082019050919050565b600060208201905081810360008301526135b98161357d565b9050919050565b600060808201905081810360008301526135da8187612fb7565b905081810360208301526135ee8186612fb7565b90506135fd6040830185612d74565b61360a6060830184612d74565b95945050505050565b7f436172207769746820676976656e20696420646f6573206e6f74206578697374600082015250565b6000613649602083612ec4565b915061365482613613565b602082019050919050565b600060208201905081810360008301526136788161363c565b9050919050565b613688816128fa565b82525050565b60006020820190506136a3600083018461367f565b92915050565b7f5573657220686173206e6f206465627420746f20706179000000000000000000600082015250565b60006136df601783612ec4565b91506136ea826136a9565b602082019050919050565b6000602082019050818103600083015261370e816136d2565b9050919050565b7f557365722068617320696e73756666696369656e742062616c616e6365000000600082015250565b600061374b601d83612ec4565b915061375682613715565b602082019050919050565b6000602082019050818103600083015261377a8161373e565b9050919050565b7f4e487b7100000000000000000000000000000000000000000000000000000000600052601260045260246000fd5b60006137bb826127f2565b91506137c6836127f2565b9250826137d6576137d5613781565b5b828204905092915050565b60006137ec826127f2565b91506137f7836127f2565b9250817fffffffffffffffffffffffffffffffffffffffffffffffffffffffffffffffff04831182151516156138305761382f61306e565b5b828202905092915050565b7f5265656e7472616e637947756172643a207265656e7472616e742063616c6c00600082015250565b6000613871601f83612ec4565b915061387c8261383b565b602082019050919050565b600060208201905081810360008301526138a081613864565b905091905056fea2646970667358221220d37ab9785a4be19c9bfb9b66a56614c95b44123a076977e796302a1202a7832064736f6c63430008090033",
  "linkReferences": {},
  "deployedLinkReferences": {}
}