{
  "contractName": "CarRentalPlatform",
  "abi": [
    {
      "inputs": [],
      "stateMutability": "nonpayable",
      "type": "constructor"
    },
    {
      "anonymous": false,
      "inputs": [
        {
          "indexed": true,
          "internalType": "address",
          "name": "walletAddress",
          "type": "address"
        },
        {
          "indexed": false,
          "internalType": "uint256",
          "name": "amount",
          "type": "uint256"
        }
      ],
      "name": "BalanceWithdrawn",
      "type": "event"
    },
    {
      "anonymous": false,
      "inputs": [
        {
          "indexed": true,
          "internalType": "uint256",
          "name": "id",
          "type": "uint256"
        },
        {
          "indexed": false,
          "internalType": "string",
          "name": "name",
          "type": "string"
        },
        {
          "indexed": false,
          "internalType": "string",
          "name": "imgUrl",
          "type": "string"
        },
        {
          "indexed": false,
          "internalType": "uint256",
          "name": "rentFee",
          "type": "uint256"
        },
        {
          "indexed": false,
          "internalType": "uint256",
          "name": "saleFee",
          "type": "uint256"
        }
      ],
      "name": "CarAdded",
      "type": "event"
    },
    {
      "anonymous": false,
      "inputs": [
        {
          "indexed": true,
          "internalType": "uint256",
          "name": "id",
          "type": "uint256"
        },
        {
          "indexed": false,
          "internalType": "string",
          "name": "name",
          "type": "string"
        },
        {
          "indexed": false,
          "internalType": "string",
          "name": "imgUrl",
          "type": "string"
        },
        {
          "indexed": false,
          "internalType": "uint256",
          "name": "rentFee",
          "type": "uint256"
        },
        {
          "indexed": false,
          "internalType": "uint256",
          "name": "saleFee",
          "type": "uint256"
        }
      ],
      "name": "CarMetadataEdited",
      "type": "event"
    },
    {
      "anonymous": false,
      "inputs": [
        {
          "indexed": true,
          "internalType": "uint256",
          "name": "id",
          "type": "uint256"
        },
        {
          "indexed": false,
          "internalType": "enum CarRentalPlatform.Status",
          "name": "status",
          "type": "uint8"
        }
      ],
      "name": "CarStatusEdited",
      "type": "event"
    },
    {
      "anonymous": false,
      "inputs": [
        {
          "indexed": true,
          "internalType": "address",
          "name": "walletAddress",
          "type": "address"
        },
        {
          "indexed": true,
          "internalType": "uint256",
          "name": "carId",
          "type": "uint256"
        }
      ],
      "name": "CheckIn",
      "type": "event"
    },
    {
      "anonymous": false,
      "inputs": [
        {
          "indexed": true,
          "internalType": "address",
          "name": "walletAddress",
          "type": "address"
        },
        {
          "indexed": true,
          "internalType": "uint256",
          "name": "carId",
          "type": "uint256"
        }
      ],
      "name": "CheckOut",
      "type": "event"
    },
    {
      "anonymous": false,
      "inputs": [
        {
          "indexed": true,
          "internalType": "address",
          "name": "walletAddress",
          "type": "address"
        },
        {
          "indexed": false,
          "internalType": "uint256",
          "name": "amount",
          "type": "uint256"
        }
      ],
      "name": "Deposit",
      "type": "event"
    },
    {
      "anonymous": false,
      "inputs": [
        {
          "indexed": true,
          "internalType": "address",
          "name": "walletAddress",
          "type": "address"
        },
        {
          "indexed": false,
          "internalType": "uint256",
          "name": "amount",
          "type": "uint256"
        }
      ],
      "name": "PaymentMade",
      "type": "event"
    },
    {
      "anonymous": false,
      "inputs": [
        {
          "indexed": true,
          "internalType": "address",
          "name": "walletAddress",
          "type": "address"
        },
        {
          "indexed": false,
          "internalType": "string",
          "name": "name",
          "type": "string"
        },
        {
          "indexed": false,
          "internalType": "string",
          "name": "surname",
          "type": "string"
        }
      ],
      "name": "UserAdded",
      "type": "event"
    },
    {
      "inputs": [
        {
          "internalType": "address",
          "name": "_newOwner",
          "type": "address"
        }
      ],
      "name": "setOwner",
      "outputs": [],
      "stateMutability": "nonpayable",
      "type": "function"
    },
    {
      "inputs": [
        {
          "internalType": "string",
          "name": "name",
          "type": "string"
        },
        {
          "internalType": "string",
          "name": "surname",
          "type": "string"
        }
      ],
      "name": "addUser",
      "outputs": [],
      "stateMutability": "nonpayable",
      "type": "function"
    },
    {
      "inputs": [
        {
          "internalType": "string",
          "name": "name",
          "type": "string"
        },
        {
          "internalType": "string",
          "name": "url",
          "type": "string"
        },
        {
          "internalType": "uint256",
          "name": "rent",
          "type": "uint256"
        },
        {
          "internalType": "uint256",
          "name": "sale",
          "type": "uint256"
        }
      ],
      "name": "addCar",
      "outputs": [],
      "stateMutability": "nonpayable",
      "type": "function"
    },
    {
      "inputs": [
        {
          "internalType": "uint256",
          "name": "id",
          "type": "uint256"
        },
        {
          "internalType": "string",
          "name": "name",
          "type": "string"
        },
        {
          "internalType": "string",
          "name": "imgUrl",
          "type": "string"
        },
        {
          "internalType": "uint256",
          "name": "rentFee",
          "type": "uint256"
        },
        {
          "internalType": "uint256",
          "name": "saleFee",
          "type": "uint256"
        }
      ],
      "name": "editCarMetadata",
      "outputs": [],
      "stateMutability": "nonpayable",
      "type": "function"
    },
    {
      "inputs": [
        {
          "internalType": "uint256",
          "name": "id",
          "type": "uint256"
        },
        {
          "internalType": "enum CarRentalPlatform.Status",
          "name": "status",
          "type": "uint8"
        }
      ],
      "name": "editCarStatus",
      "outputs": [],
      "stateMutability": "nonpayable",
      "type": "function"
    },
    {
      "inputs": [
        {
          "internalType": "uint256",
          "name": "id",
          "type": "uint256"
        }
      ],
      "name": "checkOut",
      "outputs": [],
      "stateMutability": "nonpayable",
      "type": "function"
    },
    {
      "inputs": [],
      "name": "checkIn",
      "outputs": [],
      "stateMutability": "nonpayable",
      "type": "function"
    },
    {
      "inputs": [],
      "name": "deposit",
      "outputs": [],
      "stateMutability": "payable",
      "type": "function"
    },
    {
      "inputs": [],
      "name": "makePayment",
      "outputs": [],
      "stateMutability": "nonpayable",
      "type": "function"
    },
    {
      "inputs": [
        {
          "internalType": "uint256",
          "name": "amount",
          "type": "uint256"
        }
      ],
      "name": "withdrawBalance",
      "outputs": [],
      "stateMutability": "nonpayable",
      "type": "function"
    },
    {
      "inputs": [
        {
          "internalType": "uint256",
          "name": "amount",
          "type": "uint256"
        }
      ],
      "name": "withdrawOwnerBalance",
      "outputs": [],
      "stateMutability": "nonpayable",
      "type": "function"
    },
    {
      "inputs": [],
      "name": "getOwner",
      "outputs": [
        {
          "internalType": "address",
          "name": "",
          "type": "address"
        }
      ],
      "stateMutability": "view",
      "type": "function"
    },
    {
      "inputs": [
        {
          "internalType": "address",
          "name": "walletAddress",
          "type": "address"
        }
      ],
      "name": "getUser",
      "outputs": [
        {
          "components": [
            {
              "internalType": "address",
              "name": "walletAddress",
              "type": "address"
            },
            {
              "internalType": "string",
              "name": "name",
              "type": "string"
            },
            {
              "internalType": "string",
              "name": "surname",
              "type": "string"
            },
            {
              "internalType": "uint256",
              "name": "balance",
              "type": "uint256"
            },
            {
              "internalType": "uint256",
              "name": "rentedCarId",
              "type": "uint256"
            },
            {
              "internalType": "uint256",
              "name": "debt",
              "type": "uint256"
            },
            {
              "internalType": "uint256",
              "name": "start",
              "type": "uint256"
            }
          ],
          "internalType": "struct CarRentalPlatform.User",
          "name": "",
          "type": "tuple"
        }
      ],
      "stateMutability": "view",
      "type": "function"
    },
    {
      "inputs": [
        {
          "internalType": "uint256",
          "name": "id",
          "type": "uint256"
        }
      ],
      "name": "getCar",
      "outputs": [
        {
          "components": [
            {
              "internalType": "uint256",
              "name": "id",
              "type": "uint256"
            },
            {
              "internalType": "string",
              "name": "name",
              "type": "string"
            },
            {
              "internalType": "string",
              "name": "imgUrl",
              "type": "string"
            },
            {
              "internalType": "enum CarRentalPlatform.Status",
              "name": "status",
              "type": "uint8"
            },
            {
              "internalType": "uint256",
              "name": "rentFee",
              "type": "uint256"
            },
            {
              "internalType": "uint256",
              "name": "saleFee",
              "type": "uint256"
            }
          ],
          "internalType": "struct CarRentalPlatform.Car",
          "name": "",
          "type": "tuple"
        }
      ],
      "stateMutability": "view",
      "type": "function"
    },
    {
      "inputs": [
        {
          "internalType": "enum CarRentalPlatform.Status",
          "name": "_status",
          "type": "uint8"
        }
      ],
      "name": "getCarByStatus",
      "outputs": [
        {
          "components": [
            {
              "internalType": "uint256",
              "name": "id",
              "type": "uint256"
            },
            {
              "internalType": "string",
              "name": "name",
              "type": "string"
            },
            {
              "internalType": "string",
              "name": "imgUrl",
              "type": "string"
            },
            {
              "internalType": "enum CarRentalPlatform.Status",
              "name": "status",
              "type": "uint8"
            },
            {
              "internalType": "uint256",
              "name": "rentFee",
              "type": "uint256"
            },
            {
              "internalType": "uint256",
              "name": "saleFee",
              "type": "uint256"
            }
          ],
          "internalType": "struct CarRentalPlatform.Car[]",
          "name": "",
          "type": "tuple[]"
        }
      ],
      "stateMutability": "view",
      "type": "function"
    },
    {
      "inputs": [],
      "name": "getCurrentCount",
      "outputs": [
        {
          "internalType": "uint256",
          "name": "",
          "type": "uint256"
        }
      ],
      "stateMutability": "view",
      "type": "function"
    },
    {
      "inputs": [],
      "name": "getContractBalance",
      "outputs": [
        {
          "internalType": "uint256",
          "name": "",
          "type": "uint256"
        }
      ],
      "stateMutability": "view",
      "type": "function"
    },
    {
      "inputs": [],
      "name": "getTotalPayments",
      "outputs": [
        {
          "internalType": "uint256",
          "name": "",
          "type": "uint256"
        }
      ],
      "stateMutability": "view",
      "type": "function"
    }
  ],
  "bytecode": "0x608060405234801561000f575f80fd5b5060015f819055503360025f6101000a81548173ffffffffffffffffffffffffffffffffffffffff021916908373ffffffffffffffffffffffffffffffffffffffff1602179055505f6003819055506139108061006b5f395ff3fe608060405260043610610108575f3560e01c80636f9fb98a11610094578063d0e30db011610063578063d0e30db014610344578063d8546f491461034e578063d8d7970014610376578063da76d5cd1461038c578063dd51babf146103b457610108565b80636f9fb98a1461029e578063708f29a6146102c8578063893d20e8146102f25780639a43da731461031c57610108565b80631bd2eeee116100db5780631bd2eeee146101ae5780633c69c657146101d65780634865bed2146101fe5780635e8be190146102265780636f77926b1461026257610108565b8063079eaf341461010c5780630a4115271461013457806313af403514610170578063183ff08514610198575b5f80fd5b348015610117575f80fd5b50610132600480360381019061012d91906124cd565b6103de565b005b34801561013f575f80fd5b5061015a6004803603810190610155919061256e565b6106a2565b60405161016791906127f6565b60405180910390f35b34801561017b575f80fd5b5061019660048036038101906101919190612870565b6109bd565b005b3480156101a3575f80fd5b506101ac610a8f565b005b3480156101b9575f80fd5b506101d460048036038101906101cf91906128c5565b610d32565b005b3480156101e1575f80fd5b506101fc60048036038101906101f791906128c5565b611012565b005b348015610209575f80fd5b50610224600480360381019061021f91906128f0565b611210565b005b348015610231575f80fd5b5061024c600480360381019061024791906128c5565b61149c565b6040516102599190612a20565b60405180910390f35b34801561026d575f80fd5b5061028860048036038101906102839190612870565b611693565b6040516102959190612aef565b60405180910390f35b3480156102a9575f80fd5b506102b26118ce565b6040516102bf9190612b1e565b60405180910390f35b3480156102d3575f80fd5b506102dc611964565b6040516102e99190612b1e565b60405180910390f35b3480156102fd575f80fd5b506103066119fc565b6040516103139190612b46565b60405180910390f35b348015610327575f80fd5b50610342600480360381019061033d9190612b5f565b611a24565b005b61034c611b7f565b005b348015610359575f80fd5b50610374600480360381019061036f9190612b9d565b611c6d565b005b348015610381575f80fd5b5061038a611e1d565b005b348015610397575f80fd5b506103b260048036038101906103ad91906128c5565b61206e565b005b3480156103bf575f80fd5b506103c8612295565b6040516103d59190612b1e565b60405180910390f35b6103e7336122a5565b15610427576040517f08c379a000000000000000000000000000000000000000000000000000000000815260040161041e90612cae565b60405180910390fd5b6040518060e001604052803373ffffffffffffffffffffffffffffffffffffffff16815260200185858080601f0160208091040260200160405190810160405280939291908181526020018383808284375f81840152601f19601f82011690508083019250505050505050815260200183838080601f0160208091040260200160405190810160405280939291908181526020018383808284375f81840152601f19601f8201169050808301925050505050505081526020015f81526020015f81526020015f81526020015f81525060045f3373ffffffffffffffffffffffffffffffffffffffff1673ffffffffffffffffffffffffffffffffffffffff1681526020019081526020015f205f820151815f015f6101000a81548173ffffffffffffffffffffffffffffffffffffffff021916908373ffffffffffffffffffffffffffffffffffffffff160217905550602082015181600101908161058c9190612ef3565b5060408201518160020190816105a29190612ef3565b50606082015181600301556080820151816004015560a0820151816005015560c082015181600601559050503373ffffffffffffffffffffffffffffffffffffffff167f8eab1db142a914aff8b515eedb9177bd7effaef6d714c41e30bdf1520677860760045f3373ffffffffffffffffffffffffffffffffffffffff1673ffffffffffffffffffffffffffffffffffffffff1681526020019081526020015f2060010160045f3373ffffffffffffffffffffffffffffffffffffffff1673ffffffffffffffffffffffffffffffffffffffff1681526020019081526020015f20600201604051610694929190613043565b60405180910390a250505050565b60605f806106b0600161233b565b90505f600190505b81811161072c578460028111156106d2576106d1612664565b5b60055f8381526020019081526020015f206003015f9054906101000a900460ff16600281111561070557610704612664565b5b03610719578280610715906130a5565b9350505b8080610724906130a5565b9150506106b8565b505f8267ffffffffffffffff81111561074857610747612ccc565b5b60405190808252806020026020018201604052801561078157816020015b61076e6123d2565b8152602001906001900390816107665790505b5090505f80600190505b8381116109b0578660028111156107a5576107a4612664565b5b60055f8381526020019081526020015f206003015f9054906101000a900460ff1660028111156107d8576107d7612664565b5b0361099d5760055f8281526020019081526020015f206040518060c00160405290815f820154815260200160018201805461081290612d26565b80601f016020809104026020016040519081016040528092919081815260200182805461083e90612d26565b80156108895780601f1061086057610100808354040283529160200191610889565b820191905f5260205f20905b81548152906001019060200180831161086c57829003601f168201915b505050505081526020016002820180546108a290612d26565b80601f01602080910402602001604051908101604052809291908181526020018280546108ce90612d26565b80156109195780601f106108f057610100808354040283529160200191610919565b820191905f5260205f20905b8154815290600101906020018083116108fc57829003601f168201915b50505050508152602001600382015f9054906101000a900460ff16600281111561094657610945612664565b5b600281111561095857610957612664565b5b815260200160048201548152602001600582015481525050838381518110610983576109826130ec565b5b60200260200101819052508180610999906130a5565b9250505b80806109a8906130a5565b91505061078b565b5081945050505050919050565b60025f9054906101000a900473ffffffffffffffffffffffffffffffffffffffff1673ffffffffffffffffffffffffffffffffffffffff163373ffffffffffffffffffffffffffffffffffffffff1614610a4c576040517f08c379a0000000000000000000000000000000000000000000000000000000008152600401610a4390613189565b60405180910390fd5b8060025f6101000a81548173ffffffffffffffffffffffffffffffffffffffff021916908373ffffffffffffffffffffffffffffffffffffffff16021790555050565b610a98336122a5565b610ad7576040517f08c379a0000000000000000000000000000000000000000000000000000000008152600401610ace906131f1565b60405180910390fd5b5f60045f3373ffffffffffffffffffffffffffffffffffffffff1673ffffffffffffffffffffffffffffffffffffffff1681526020019081526020015f206004015490505f8103610b5d576040517f08c379a0000000000000000000000000000000000000000000000000000000008152600401610b5490613259565b60405180910390fd5b5f60045f3373ffffffffffffffffffffffffffffffffffffffff1673ffffffffffffffffffffffffffffffffffffffff1681526020019081526020015f206006015442610baa9190613277565b90505f60055f8481526020019081526020015f20600401549050610bce8282612347565b60045f3373ffffffffffffffffffffffffffffffffffffffff1673ffffffffffffffffffffffffffffffffffffffff1681526020019081526020015f206005015f828254610c1c91906132aa565b925050819055505f60045f3373ffffffffffffffffffffffffffffffffffffffff1673ffffffffffffffffffffffffffffffffffffffff1681526020019081526020015f20600401819055505f60045f3373ffffffffffffffffffffffffffffffffffffffff1673ffffffffffffffffffffffffffffffffffffffff1681526020019081526020015f2060060181905550600160055f8581526020019081526020015f206003015f6101000a81548160ff02191690836002811115610ce457610ce3612664565b5b0217905550823373ffffffffffffffffffffffffffffffffffffffff167fa864a8b988e604bb05d6ce75d53efabb5620c45b15380b7bd0c51dcfa71dda0360405160405180910390a3505050565b610d3b336122a5565b610d7a576040517f08c379a0000000000000000000000000000000000000000000000000000000008152600401610d71906131f1565b60405180910390fd5b60016002811115610d8e57610d8d612664565b5b60055f8381526020019081526020015f206003015f9054906101000a900460ff166002811115610dc157610dc0612664565b5b14610e01576040517f08c379a0000000000000000000000000000000000000000000000000000000008152600401610df890613327565b60405180910390fd5b5f60045f3373ffffffffffffffffffffffffffffffffffffffff1673ffffffffffffffffffffffffffffffffffffffff1681526020019081526020015f206004015414610e83576040517f08c379a0000000000000000000000000000000000000000000000000000000008152600401610e7a9061338f565b60405180910390fd5b5f60045f3373ffffffffffffffffffffffffffffffffffffffff1673ffffffffffffffffffffffffffffffffffffffff1681526020019081526020015f206005015414610f05576040517f08c379a0000000000000000000000000000000000000000000000000000000008152600401610efc906133f7565b60405180910390fd5b4260045f3373ffffffffffffffffffffffffffffffffffffffff1673ffffffffffffffffffffffffffffffffffffffff1681526020019081526020015f20600601819055508060045f3373ffffffffffffffffffffffffffffffffffffffff1673ffffffffffffffffffffffffffffffffffffffff1681526020019081526020015f2060040181905550600260055f8381526020019081526020015f206003015f6101000a81548160ff02191690836002811115610fc657610fc5612664565b5b0217905550803373ffffffffffffffffffffffffffffffffffffffff167ff65ce03794824579bcd95d8c6743ffc10c4a5e7405fb3876c1abf81453105c4260405160405180910390a350565b60025f9054906101000a900473ffffffffffffffffffffffffffffffffffffffff1673ffffffffffffffffffffffffffffffffffffffff163373ffffffffffffffffffffffffffffffffffffffff16146110a1576040517f08c379a000000000000000000000000000000000000000000000000000000000815260040161109890613189565b60405180910390fd5b8060035410156110e6576040517f08c379a00000000000000000000000000000000000000000000000000000000081526004016110dd90613485565b60405180910390fd5b5f60025f9054906101000a900473ffffffffffffffffffffffffffffffffffffffff1673ffffffffffffffffffffffffffffffffffffffff168260405161112c906134d0565b5f6040518083038185875af1925050503d805f8114611166576040519150601f19603f3d011682016040523d82523d5f602084013e61116b565b606091505b50509050806111af576040517f08c379a00000000000000000000000000000000000000000000000000000000081526004016111a69061352e565b60405180910390fd5b8160035f82825403925050819055503373ffffffffffffffffffffffffffffffffffffffff167fddc398b321237a8d40ac914388309c2f52a08c134e4dc4ce61e32f57cb7d80f1836040516112049190612b1e565b60405180910390a25050565b60025f9054906101000a900473ffffffffffffffffffffffffffffffffffffffff1673ffffffffffffffffffffffffffffffffffffffff163373ffffffffffffffffffffffffffffffffffffffff161461129f576040517f08c379a000000000000000000000000000000000000000000000000000000000815260040161129690613189565b60405180910390fd5b6112a96001612368565b5f6112b4600161233b565b90506040518060c0016040528082815260200188888080601f0160208091040260200160405190810160405280939291908181526020018383808284375f81840152601f19601f82011690508083019250505050505050815260200186868080601f0160208091040260200160405190810160405280939291908181526020018383808284375f81840152601f19601f8201169050808301925050505050505081526020016001600281111561136d5761136c612664565b5b81526020018481526020018381525060055f8381526020019081526020015f205f820151815f015560208201518160010190816113aa9190612ef3565b5060408201518160020190816113c09190612ef3565b506060820151816003015f6101000a81548160ff021916908360028111156113eb576113ea612664565b5b02179055506080820151816004015560a08201518160050155905050807f1d26cfb076fd58c1fa5695bb34e5556995a0aa34ecc601438f9957d6a71439a360055f8481526020019081526020015f2060010160055f8581526020019081526020015f2060020160055f8681526020019081526020015f206004015460055f8781526020019081526020015f206005015460405161148b949392919061354c565b60405180910390a250505050505050565b6114a46123d2565b5f60055f8481526020019081526020015f205f0154036114f9576040517f08c379a00000000000000000000000000000000000000000000000000000000081526004016114f0906135e7565b60405180910390fd5b60055f8381526020019081526020015f206040518060c00160405290815f820154815260200160018201805461152e90612d26565b80601f016020809104026020016040519081016040528092919081815260200182805461155a90612d26565b80156115a55780601f1061157c576101008083540402835291602001916115a5565b820191905f5260205f20905b81548152906001019060200180831161158857829003601f168201915b505050505081526020016002820180546115be90612d26565b80601f01602080910402602001604051908101604052809291908181526020018280546115ea90612d26565b80156116355780601f1061160c57610100808354040283529160200191611635565b820191905f5260205f20905b81548152906001019060200180831161161857829003601f168201915b50505050508152602001600382015f9054906101000a900460ff16600281111561166257611661612664565b5b600281111561167457611673612664565b5b8152602001600482015481526020016005820154815250509050919050565b61169b612416565b6116a4826122a5565b6116e3576040517f08c379a00000000000000000000000000000000000000000000000000000000081526004016116da906131f1565b60405180910390fd5b60045f8373ffffffffffffffffffffffffffffffffffffffff1673ffffffffffffffffffffffffffffffffffffffff1681526020019081526020015f206040518060e00160405290815f82015f9054906101000a900473ffffffffffffffffffffffffffffffffffffffff1673ffffffffffffffffffffffffffffffffffffffff1673ffffffffffffffffffffffffffffffffffffffff16815260200160018201805461178f90612d26565b80601f01602080910402602001604051908101604052809291908181526020018280546117bb90612d26565b80156118065780601f106117dd57610100808354040283529160200191611806565b820191905f5260205f20905b8154815290600101906020018083116117e957829003601f168201915b5050505050815260200160028201805461181f90612d26565b80601f016020809104026020016040519081016040528092919081815260200182805461184b90612d26565b80156118965780601f1061186d57610100808354040283529160200191611896565b820191905f5260205f20905b81548152906001019060200180831161187957829003601f168201915b505050505081526020016003820154815260200160048201548152602001600582015481526020016006820154815250509050919050565b5f60025f9054906101000a900473ffffffffffffffffffffffffffffffffffffffff1673ffffffffffffffffffffffffffffffffffffffff163373ffffffffffffffffffffffffffffffffffffffff161461195e576040517f08c379a000000000000000000000000000000000000000000000000000000000815260040161195590613189565b60405180910390fd5b47905090565b5f60025f9054906101000a900473ffffffffffffffffffffffffffffffffffffffff1673ffffffffffffffffffffffffffffffffffffffff163373ffffffffffffffffffffffffffffffffffffffff16146119f4576040517f08c379a00000000000000000000000000000000000000000000000000000000081526004016119eb90613189565b60405180910390fd5b600354905090565b5f60025f9054906101000a900473ffffffffffffffffffffffffffffffffffffffff16905090565b60025f9054906101000a900473ffffffffffffffffffffffffffffffffffffffff1673ffffffffffffffffffffffffffffffffffffffff163373ffffffffffffffffffffffffffffffffffffffff1614611ab3576040517f08c379a0000000000000000000000000000000000000000000000000000000008152600401611aaa90613189565b60405180910390fd5b5f60055f8481526020019081526020015f205f015403611b08576040517f08c379a0000000000000000000000000000000000000000000000000000000008152600401611aff906135e7565b60405180910390fd5b8060055f8481526020019081526020015f206003015f6101000a81548160ff02191690836002811115611b3e57611b3d612664565b5b0217905550817fa2038badc9c4004a10f632052c54b0011bb307c2cadc65f22071f61ffd10663382604051611b739190613614565b60405180910390a25050565b611b88336122a5565b611bc7576040517f08c379a0000000000000000000000000000000000000000000000000000000008152600401611bbe906131f1565b60405180910390fd5b3460045f3373ffffffffffffffffffffffffffffffffffffffff1673ffffffffffffffffffffffffffffffffffffffff1681526020019081526020015f206003015f828254611c1691906132aa565b925050819055503373ffffffffffffffffffffffffffffffffffffffff167fe1fffcc4923d04b559f4d29a8bfc6cda04eb5b0d3c460751c2402c5c5cc9109c34604051611c639190612b1e565b60405180910390a2565b60025f9054906101000a900473ffffffffffffffffffffffffffffffffffffffff1673ffffffffffffffffffffffffffffffffffffffff163373ffffffffffffffffffffffffffffffffffffffff1614611cfc576040517f08c379a0000000000000000000000000000000000000000000000000000000008152600401611cf390613189565b60405180910390fd5b5f60055f8981526020019081526020015f205f015403611d51576040517f08c379a0000000000000000000000000000000000000000000000000000000008152600401611d48906135e7565b60405180910390fd5b5f60055f8981526020019081526020015f2090505f8787905014611d84578686826001019182611d82929190613637565b505b5f8585905014611da3578484826002019182611da1929190613637565b505b5f831115611db5578281600401819055505b5f821115611dc7578181600501819055505b877f10e3e3a462a9f4c167783d47719e646c87b1a773b083fb5eef04a076e887079c826001018360020184600401548560050154604051611e0b949392919061354c565b60405180910390a25050505050505050565b611e26336122a5565b611e65576040517f08c379a0000000000000000000000000000000000000000000000000000000008152600401611e5c906131f1565b60405180910390fd5b5f60045f3373ffffffffffffffffffffffffffffffffffffffff1673ffffffffffffffffffffffffffffffffffffffff1681526020019081526020015f206005015490505f60045f3373ffffffffffffffffffffffffffffffffffffffff1673ffffffffffffffffffffffffffffffffffffffff1681526020019081526020015f206003015490505f8211611f2f576040517f08c379a0000000000000000000000000000000000000000000000000000000008152600401611f269061374e565b60405180910390fd5b81811015611f72576040517f08c379a0000000000000000000000000000000000000000000000000000000008152600401611f69906137b6565b60405180910390fd5b8160045f3373ffffffffffffffffffffffffffffffffffffffff1673ffffffffffffffffffffffffffffffffffffffff1681526020019081526020015f206003015f82825403925050819055508160035f828254611fd091906132aa565b925050819055505f60045f3373ffffffffffffffffffffffffffffffffffffffff1673ffffffffffffffffffffffffffffffffffffffff1681526020019081526020015f20600501819055503373ffffffffffffffffffffffffffffffffffffffff167f3a2d0e41c506b136330c6e5e0295ccbf0966daece99bfe7c89020cc01dbfb8d6836040516120629190612b1e565b60405180910390a25050565b61207661237c565b61207f336122a5565b6120be576040517f08c379a00000000000000000000000000000000000000000000000000000000081526004016120b5906131f1565b60405180910390fd5b5f60045f3373ffffffffffffffffffffffffffffffffffffffff1673ffffffffffffffffffffffffffffffffffffffff1681526020019081526020015f2060030154905081811015612145576040517f08c379a000000000000000000000000000000000000000000000000000000000815260040161213c906137b6565b60405180910390fd5b8160045f3373ffffffffffffffffffffffffffffffffffffffff1673ffffffffffffffffffffffffffffffffffffffff1681526020019081526020015f206003015f82825403925050819055505f3373ffffffffffffffffffffffffffffffffffffffff16836040516121b7906134d0565b5f6040518083038185875af1925050503d805f81146121f1576040519150601f19603f3d011682016040523d82523d5f602084013e6121f6565b606091505b505090508061223a576040517f08c379a00000000000000000000000000000000000000000000000000000000081526004016122319061352e565b60405180910390fd5b3373ffffffffffffffffffffffffffffffffffffffff167fddc398b321237a8d40ac914388309c2f52a08c134e4dc4ce61e32f57cb7d80f1846040516122809190612b1e565b60405180910390a250506122926123c9565b50565b5f6122a0600161233b565b905090565b5f8073ffffffffffffffffffffffffffffffffffffffff1660045f8473ffffffffffffffffffffffffffffffffffffffff1673ffffffffffffffffffffffffffffffffffffffff1681526020019081526020015f205f015f9054906101000a900473ffffffffffffffffffffffffffffffffffffffff1673ffffffffffffffffffffffffffffffffffffffff1614159050919050565b5f815f01549050919050565b5f81603c846123569190613801565b6123609190613831565b905092915050565b6001815f015f828254019250508190555050565b60025f54036123c0576040517f08c379a00000000000000000000000000000000000000000000000000000000081526004016123b7906138bc565b60405180910390fd5b60025f81905550565b60015f81905550565b6040518060c001604052805f815260200160608152602001606081526020015f600281111561240457612403612664565b5b81526020015f81526020015f81525090565b6040518060e001604052805f73ffffffffffffffffffffffffffffffffffffffff16815260200160608152602001606081526020015f81526020015f81526020015f81526020015f81525090565b5f80fd5b5f80fd5b5f80fd5b5f80fd5b5f80fd5b5f8083601f84011261248d5761248c61246c565b5b8235905067ffffffffffffffff8111156124aa576124a9612470565b5b6020830191508360018202830111156124c6576124c5612474565b5b9250929050565b5f805f80604085870312156124e5576124e4612464565b5b5f85013567ffffffffffffffff81111561250257612501612468565b5b61250e87828801612478565b9450945050602085013567ffffffffffffffff81111561253157612530612468565b5b61253d87828801612478565b925092505092959194509250565b60038110612557575f80fd5b50565b5f813590506125688161254b565b92915050565b5f6020828403121561258357612582612464565b5b5f6125908482850161255a565b91505092915050565b5f81519050919050565b5f82825260208201905092915050565b5f819050602082019050919050565b5f819050919050565b6125d4816125c2565b82525050565b5f81519050919050565b5f82825260208201905092915050565b5f5b838110156126115780820151818401526020810190506125f6565b5f8484015250505050565b5f601f19601f8301169050919050565b5f612636826125da565b61264081856125e4565b93506126508185602086016125f4565b6126598161261c565b840191505092915050565b7f4e487b71000000000000000000000000000000000000000000000000000000005f52602160045260245ffd5b600381106126a2576126a1612664565b5b50565b5f8190506126b282612691565b919050565b5f6126c1826126a5565b9050919050565b6126d1816126b7565b82525050565b5f60c083015f8301516126ec5f8601826125cb565b5060208301518482036020860152612704828261262c565b9150506040830151848203604086015261271e828261262c565b915050606083015161273360608601826126c8565b50608083015161274660808601826125cb565b5060a083015161275960a08601826125cb565b508091505092915050565b5f61276f83836126d7565b905092915050565b5f602082019050919050565b5f61278d82612599565b61279781856125a3565b9350836020820285016127a9856125b3565b805f5b858110156127e457848403895281516127c58582612764565b94506127d083612777565b925060208a019950506001810190506127ac565b50829750879550505050505092915050565b5f6020820190508181035f83015261280e8184612783565b905092915050565b5f73ffffffffffffffffffffffffffffffffffffffff82169050919050565b5f61283f82612816565b9050919050565b61284f81612835565b8114612859575f80fd5b50565b5f8135905061286a81612846565b92915050565b5f6020828403121561288557612884612464565b5b5f6128928482850161285c565b91505092915050565b6128a4816125c2565b81146128ae575f80fd5b50565b5f813590506128bf8161289b565b92915050565b5f602082840312156128da576128d9612464565b5b5f6128e7848285016128b1565b91505092915050565b5f805f805f806080878903121561290a57612909612464565b5b5f87013567ffffffffffffffff81111561292757612926612468565b5b61293389828a01612478565b9650965050602087013567ffffffffffffffff81111561295657612955612468565b5b61296289828a01612478565b9450945050604061297589828a016128b1565b925050606061298689828a016128b1565b9150509295509295509295565b5f60c083015f8301516129a85f8601826125cb565b50602083015184820360208601526129c0828261262c565b915050604083015184820360408601526129da828261262c565b91505060608301516129ef60608601826126c8565b506080830151612a0260808601826125cb565b5060a0830151612a1560a08601826125cb565b508091505092915050565b5f6020820190508181035f830152612a388184612993565b905092915050565b612a4981612835565b82525050565b5f60e083015f830151612a645f860182612a40565b5060208301518482036020860152612a7c828261262c565b91505060408301518482036040860152612a96828261262c565b9150506060830151612aab60608601826125cb565b506080830151612abe60808601826125cb565b5060a0830151612ad160a08601826125cb565b5060c0830151612ae460c08601826125cb565b508091505092915050565b5f6020820190508181035f830152612b078184612a4f565b905092915050565b612b18816125c2565b82525050565b5f602082019050612b315f830184612b0f565b92915050565b612b4081612835565b82525050565b5f602082019050612b595f830184612b37565b92915050565b5f8060408385031215612b7557612b74612464565b5b5f612b82858286016128b1565b9250506020612b938582860161255a565b9150509250929050565b5f805f805f805f60a0888a031215612bb857612bb7612464565b5b5f612bc58a828b016128b1565b975050602088013567ffffffffffffffff811115612be657612be5612468565b5b612bf28a828b01612478565b9650965050604088013567ffffffffffffffff811115612c1557612c14612468565b5b612c218a828b01612478565b94509450506060612c348a828b016128b1565b9250506080612c458a828b016128b1565b91505092959891949750929550565b5f82825260208201905092915050565b7f5573657220616c726561647920657869737473000000000000000000000000005f82015250565b5f612c98601383612c54565b9150612ca382612c64565b602082019050919050565b5f6020820190508181035f830152612cc581612c8c565b9050919050565b7f4e487b71000000000000000000000000000000000000000000000000000000005f52604160045260245ffd5b7f4e487b71000000000000000000000000000000000000000000000000000000005f52602260045260245ffd5b5f6002820490506001821680612d3d57607f821691505b602082108103612d5057612d4f612cf9565b5b50919050565b5f819050815f5260205f209050919050565b5f6020601f8301049050919050565b5f82821b905092915050565b5f60088302612db27fffffffffffffffffffffffffffffffffffffffffffffffffffffffffffffffff82612d77565b612dbc8683612d77565b95508019841693508086168417925050509392505050565b5f819050919050565b5f612df7612df2612ded846125c2565b612dd4565b6125c2565b9050919050565b5f819050919050565b612e1083612ddd565b612e24612e1c82612dfe565b848454612d83565b825550505050565b5f90565b612e38612e2c565b612e43818484612e07565b505050565b5b81811015612e6657612e5b5f82612e30565b600181019050612e49565b5050565b601f821115612eab57612e7c81612d56565b612e8584612d68565b81016020851015612e94578190505b612ea8612ea085612d68565b830182612e48565b50505b505050565b5f82821c905092915050565b5f612ecb5f1984600802612eb0565b1980831691505092915050565b5f612ee38383612ebc565b9150826002028217905092915050565b612efc826125da565b67ffffffffffffffff811115612f1557612f14612ccc565b5b612f1f8254612d26565b612f2a828285612e6a565b5f60209050601f831160018114612f5b575f8415612f49578287015190505b612f538582612ed8565b865550612fba565b601f198416612f6986612d56565b5f5b82811015612f9057848901518255600182019150602085019450602081019050612f6b565b86831015612fad5784890151612fa9601f891682612ebc565b8355505b6001600288020188555050505b505050505050565b5f8154612fce81612d26565b612fd88186612c54565b9450600182165f8114612ff257600181146130085761303a565b60ff19831686528115156020028601935061303a565b61301185612d56565b5f5b8381101561303257815481890152600182019150602081019050613013565b808801955050505b50505092915050565b5f6040820190508181035f83015261305b8185612fc2565b9050818103602083015261306f8184612fc2565b90509392505050565b7f4e487b71000000000000000000000000000000000000000000000000000000005f52601160045260245ffd5b5f6130af826125c2565b91507fffffffffffffffffffffffffffffffffffffffffffffffffffffffffffffffff82036130e1576130e0613078565b5b600182019050919050565b7f4e487b71000000000000000000000000000000000000000000000000000000005f52603260045260245ffd5b7f4f6e6c79206f776e65722063616e2063616c6c20746869732066756e6374696f5f8201527f6e00000000000000000000000000000000000000000000000000000000000000602082015250565b5f613173602183612c54565b915061317e82613119565b604082019050919050565b5f6020820190508181035f8301526131a081613167565b9050919050565b7f5573657220646f6573206e6f74206578697374000000000000000000000000005f82015250565b5f6131db601383612c54565b91506131e6826131a7565b602082019050919050565b5f6020820190508181035f830152613208816131cf565b9050919050565b7f5573657220686173206e6f742072656e746564206120636172000000000000005f82015250565b5f613243601983612c54565b915061324e8261320f565b602082019050919050565b5f6020820190508181035f83015261327081613237565b9050919050565b5f613281826125c2565b915061328c836125c2565b92508282039050818111156132a4576132a3613078565b5b92915050565b5f6132b4826125c2565b91506132bf836125c2565b92508282019050808211156132d7576132d6613078565b5b92915050565b7f436172206973206e6f7420617661696c61626c6520666f7220757365000000005f82015250565b5f613311601c83612c54565b915061331c826132dd565b602082019050919050565b5f6020820190508181035f83015261333e81613305565b9050919050565b7f557365722068617320616c72656164792072656e7465642061206361720000005f82015250565b5f613379601d83612c54565b915061338482613345565b602082019050919050565b5f6020820190508181035f8301526133a68161336d565b9050919050565b7f5573657220686173206465627420746f207061790000000000000000000000005f82015250565b5f6133e1601483612c54565b91506133ec826133ad565b602082019050919050565b5f6020820190508181035f83015261340e816133d5565b9050919050565b7f496e73756666696369656e7420636f6e74726163742062616c616e636520746f5f8201527f2077697468647261770000000000000000000000000000000000000000000000602082015250565b5f61346f602983612c54565b915061347a82613415565b604082019050919050565b5f6020820190508181035f83015261349c81613463565b9050919050565b5f81905092915050565b50565b5f6134bb5f836134a3565b91506134c6826134ad565b5f82019050919050565b5f6134da826134b0565b9150819050919050565b7f5472616e73666572206661696c656400000000000000000000000000000000005f82015250565b5f613518600f83612c54565b9150613523826134e4565b602082019050919050565b5f6020820190508181035f8301526135458161350c565b9050919050565b5f6080820190508181035f8301526135648187612fc2565b905081810360208301526135788186612fc2565b90506135876040830185612b0f565b6135946060830184612b0f565b95945050505050565b7f436172207769746820676976656e20696420646f6573206e6f742065786973745f82015250565b5f6135d1602083612c54565b91506135dc8261359d565b602082019050919050565b5f6020820190508181035f8301526135fe816135c5565b9050919050565b61360e816126b7565b82525050565b5f6020820190506136275f830184613605565b92915050565b5f82905092915050565b613641838361362d565b67ffffffffffffffff81111561365a57613659612ccc565b5b6136648254612d26565b61366f828285612e6a565b5f601f83116001811461369c575f841561368a578287013590505b6136948582612ed8565b8655506136fb565b601f1984166136aa86612d56565b5f5b828110156136d1578489013582556001820191506020850194506020810190506136ac565b868310156136ee57848901356136ea601f891682612ebc565b8355505b6001600288020188555050505b50505050505050565b7f5573657220686173206e6f206465627420746f207061790000000000000000005f82015250565b5f613738601783612c54565b915061374382613704565b602082019050919050565b5f6020820190508181035f8301526137658161372c565b9050919050565b7f557365722068617320696e73756666696369656e742062616c616e63650000005f82015250565b5f6137a0601d83612c54565b91506137ab8261376c565b602082019050919050565b5f6020820190508181035f8301526137cd81613794565b9050919050565b7f4e487b71000000000000000000000000000000000000000000000000000000005f52601260045260245ffd5b5f61380b826125c2565b9150613816836125c2565b925082613826576138256137d4565b5b828204905092915050565b5f61383b826125c2565b9150613846836125c2565b9250828202613854816125c2565b9150828204841483151761386b5761386a613078565b5b5092915050565b7f5265656e7472616e637947756172643a207265656e7472616e742063616c6c005f82015250565b5f6138a6601f83612c54565b91506138b182613872565b602082019050919050565b5f6020820190508181035f8301526138d38161389a565b905091905056fea264697066735822122091da9bc20876368203cff1fe472873212ec9bf30f1ed8ed3129fbc7f788bec4664736f6c63430008140033",
  "immutableReferences": {},
  "source": "// SPDX-License-Identifier: MIT\npragma solidity ^0.8.7;\n\n// import @openzeppelin/contracts\nimport \"../node_modules/@openzeppelin/contracts/utils/Counters.sol\";\nimport \"../node_modules/@openzeppelin/contracts/security/ReentrancyGuard.sol\";\n\ncontract CarRentalPlatform is ReentrancyGuard {\n    // DATA\n\n    // Counter\n    using Counters for Counters.Counter;\n    Counters.Counter private _counter;\n    // Owner\n    address private owner;\n    // totalPayments\n    uint private totalPayments;\n    // user struct\n    struct User {\n        address walletAddress;\n        string name;\n        string surname;\n        uint balance;\n        uint rentedCarId;\n        uint debt;\n        uint start;\n    }\n    // car struct\n    struct Car {\n        uint id;\n        string name;\n        string imgUrl;\n        Status status;\n        uint rentFee;\n        uint saleFee;\n    }\n\n    // enum to indicate the status of a car\n    enum Status {\n        Retired,\n        Available,\n        InUse\n    }\n    // events\n    event CarAdded(\n        uint indexed id,\n        string name,\n        string imgUrl,\n        uint rentFee,\n        uint saleFee\n    );\n    event CarMetadataEdited(\n        uint indexed id,\n        string name,\n        string imgUrl,\n        uint rentFee,\n        uint saleFee\n    );\n    event CarStatusEdited(uint indexed id, Status status);\n    event UserAdded(address indexed walletAddress, string name, string surname);\n    event Deposit(address indexed walletAddress, uint amount);\n    event CheckOut(address indexed walletAddress, uint indexed carId);\n    event CheckIn(address indexed walletAddress, uint indexed carId);\n    event PaymentMade(address indexed walletAddress, uint amount);\n    event BalanceWithdrawn(address indexed walletAddress, uint amount);\n    // user mapping\n    mapping(address => User) private users;\n    // car mapping\n    mapping(uint => Car) private cars;\n\n    // Constructor\n    constructor() {\n        owner = msg.sender;\n        totalPayments = 0;\n    }\n\n    // MODIFIERS\n    // onlyOwner\n    modifier onlyOwner() {\n        require(msg.sender == owner, \"Only owner can call this function\");\n        _;\n    }\n\n    // FUNCTIONS\n    // Execute Functions\n\n    // setOwner #onlyOwner\n    function setOwner(address _newOwner) external onlyOwner {\n        owner = _newOwner;\n    }\n\n    // addUser #nonExisting\n    function addUser(string calldata name, string calldata surname) external {\n        require(!isUser(msg.sender), \"User already exists\");\n        users[msg.sender] = User(msg.sender, name, surname, 0, 0, 0, 0);\n\n        emit UserAdded(\n            msg.sender,\n            users[msg.sender].name,\n            users[msg.sender].surname\n        );\n    }\n\n    // addCar #onlyOwner #nonExistingCar\n    function addCar(\n        string calldata name,\n        string calldata url,\n        uint rent,\n        uint sale\n    ) external onlyOwner {\n        _counter.increment();\n        uint counter = _counter.current();\n        cars[counter] = Car(counter, name, url, Status.Available, rent, sale);\n\n        emit CarAdded(\n            counter,\n            cars[counter].name,\n            cars[counter].imgUrl,\n            cars[counter].rentFee,\n            cars[counter].saleFee\n        );\n    }\n\n    // editCarMetadata #onlyOwner #existingCar\n    function editCarMetadata(\n        uint id,\n        string calldata name,\n        string calldata imgUrl,\n        uint rentFee,\n        uint saleFee\n    ) external onlyOwner {\n        require(cars[id].id != 0, \"Car with given id does not exist\");\n        Car storage car = cars[id];\n        if (bytes(name).length != 0) {\n            car.name = name;\n        }\n        if (bytes(imgUrl).length != 0) {\n            car.imgUrl = imgUrl;\n        }\n        if (rentFee > 0) {\n            car.rentFee = rentFee;\n        }\n        if (saleFee > 0) {\n            car.saleFee = saleFee;\n        }\n\n        emit CarMetadataEdited(\n            id,\n            car.name,\n            car.imgUrl,\n            car.rentFee,\n            car.saleFee\n        );\n    }\n\n    // editCarStatus #onlyOwner #existingCar\n    function editCarStatus(uint id, Status status) external onlyOwner {\n        require(cars[id].id != 0, \"Car with given id does not exist\");\n        cars[id].status = status;\n\n        emit CarStatusEdited(id, status);\n    }\n\n    // checkOut #existingCar #isCarAvailable #userHasNotRentedCar #userHasNoDebt\n    function checkOut(uint id) external {\n        require(isUser(msg.sender), \"User does not exist\");\n        require(\n            cars[id].status == Status.Available,\n            \"Car is not available for use\"\n        );\n        require(\n            users[msg.sender].rentedCarId == 0,\n            \"User has already rented a car\"\n        );\n        require(users[msg.sender].debt == 0, \"User has debt to pay\");\n\n        users[msg.sender].start = block.timestamp;\n        users[msg.sender].rentedCarId = id;\n        cars[id].status = Status.InUse;\n\n        emit CheckOut(msg.sender, id);\n    }\n\n    // checkIn #existingCar #userHasRentedCar\n    function checkIn() external {\n        require(isUser(msg.sender), \"User does not exist\");\n        uint rentedCarId = users[msg.sender].rentedCarId;\n        require(rentedCarId != 0, \"User has not rented a car\");\n\n        uint usedSeconds = block.timestamp - users[msg.sender].start;\n        uint rentFee = cars[rentedCarId].rentFee;\n        users[msg.sender].debt += calculateDebt(usedSeconds, rentFee);\n\n        users[msg.sender].rentedCarId = 0;\n        users[msg.sender].start = 0;\n        cars[rentedCarId].status = Status.Available;\n\n        emit CheckIn(msg.sender, rentedCarId);\n    }\n\n    // deposit #existingUser\n    function deposit() external payable {\n        require(isUser(msg.sender), \"User does not exist\");\n        users[msg.sender].balance += msg.value;\n\n        emit Deposit(msg.sender, msg.value);\n    }\n\n    // makePayment #existingUser #existingDebt #sufficientBalance\n    function makePayment() external {\n        require(isUser(msg.sender), \"User does not exist\");\n        uint debt = users[msg.sender].debt;\n        uint balance = users[msg.sender].balance;\n\n        require(debt > 0, \"User has no debt to pay\");\n        require(balance >= debt, \"User has insufficient balance\");\n\n        unchecked {\n            users[msg.sender].balance -= debt;\n        }\n        totalPayments += debt;\n        users[msg.sender].debt = 0;\n\n        emit PaymentMade(msg.sender, debt);\n    }\n\n    // withdrawBalance #existingUser\n    function withdrawBalance(uint amount) external nonReentrant {\n        require(isUser(msg.sender), \"User does not exist\");\n        uint balance = users[msg.sender].balance;\n\n        require(balance >= amount, \"User has insufficient balance\");\n\n        unchecked {\n            users[msg.sender].balance -= amount;\n        }\n        (bool success, ) = msg.sender.call{value: amount}(\"\");\n        require(success, \"Transfer failed\");\n\n        emit BalanceWithdrawn(msg.sender, amount);\n    }\n\n    // widthdrawOwnerBalance #onlyOwner\n    function withdrawOwnerBalance(uint amount) external onlyOwner {\n        require(\n            totalPayments >= amount,\n            \"Insufficient contract balance to withdraw\"\n        );\n\n        (bool success, ) = owner.call{value: amount}(\"\");\n        require(success, \"Transfer failed\");\n\n        unchecked {\n            totalPayments -= amount;\n        }\n\n        emit BalanceWithdrawn(msg.sender, amount);\n    }\n\n    // Query Functions\n\n    // getOwner\n    function getOwner() external view returns (address) {\n        return owner;\n    }\n\n    // isUser\n    function isUser(address walletAddress) private view returns (bool) {\n        return users[walletAddress].walletAddress != address(0);\n    }\n\n    // getUser #existingUser\n    function getUser(\n        address walletAddress\n    ) external view returns (User memory) {\n        require(isUser(walletAddress), \"User does not exist\");\n        return users[walletAddress];\n    }\n\n    // getCar #existingCar\n    function getCar(uint id) external view returns (Car memory) {\n        require(cars[id].id != 0, \"Car with given id does not exist\");\n        return cars[id];\n    }\n\n    // getCarByStatus\n    function getCarByStatus(\n        Status _status\n    ) external view returns (Car[] memory) {\n        uint count = 0;\n        uint counter = _counter.current();\n        for (uint i = 1; i <= counter; i++) {\n            if (cars[i].status == _status) {\n                count++;\n            }\n        }\n        Car[] memory result = new Car[](count);\n        uint index = 0;\n        for (uint i = 1; i <= counter; i++) {\n            if (cars[i].status == _status) {\n                result[index] = cars[i];\n                index++;\n            }\n        }\n        return result;\n    }\n\n    // calculateDebt\n    function calculateDebt(\n        uint usedSeconds,\n        uint rentFee\n    ) private pure returns (uint) {\n        return (usedSeconds / 60) * rentFee;\n    }\n\n    // getCurrentCount\n    function getCurrentCount() external view returns (uint) {\n        return _counter.current();\n    }\n\n    // getContractBalance #onlyOwner\n    function getContractBalance() external view onlyOwner returns (uint) {\n        return address(this).balance;\n    }\n\n    // getTotalPaymanets #onlyOwner\n    function getTotalPayments() external view onlyOwner returns (uint) {\n        return totalPayments;\n    }\n}\n",
  "sourcePath": "/Users/ufukcan/Desktop/CarRentalApp/contracts/CarRentalPlatform.sol",
  "compiler": {
    "name": "solc",
    "version": "0.8.20+commit.a1b79de6.Emscripten.clang"
  },
  "schemaVersion": "3.4.14",
  "updatedAt": "2023-05-24T14:22:11.566Z",
  "devdoc": {
    "kind": "dev",
    "methods": {},
    "version": 1
  },
  "userdoc": {
    "kind": "user",
    "methods": {},
    "version": 1
  }
}